{"abi":[{"type":"constructor","inputs":[],"stateMutability":"nonpayable"},{"type":"function","name":"CLOCK_MODE","inputs":[],"outputs":[{"name":"","type":"string","internalType":"string"}],"stateMutability":"pure"},{"type":"function","name":"DOMAIN_SEPARATOR","inputs":[],"outputs":[{"name":"","type":"bytes32","internalType":"bytes32"}],"stateMutability":"view"},{"type":"function","name":"MAX_SUPPLY","inputs":[],"outputs":[{"name":"","type":"uint256","internalType":"uint256"}],"stateMutability":"view"},{"type":"function","name":"TARGET_SUPPLY","inputs":[],"outputs":[{"name":"","type":"uint256","internalType":"uint256"}],"stateMutability":"view"},{"type":"function","name":"TREASURY","inputs":[],"outputs":[{"name":"","type":"address","internalType":"address"}],"stateMutability":"view"},{"type":"function","name":"UPGRADE_INTERFACE_VERSION","inputs":[],"outputs":[{"name":"","type":"string","internalType":"string"}],"stateMutability":"view"},{"type":"function","name":"allowance","inputs":[{"name":"owner","type":"address","internalType":"address"},{"name":"spender","type":"address","internalType":"address"}],"outputs":[{"name":"","type":"uint256","internalType":"uint256"}],"stateMutability":"view"},{"type":"function","name":"approve","inputs":[{"name":"spender","type":"address","internalType":"address"},{"name":"value","type":"uint256","internalType":"uint256"}],"outputs":[{"name":"","type":"bool","internalType":"bool"}],"stateMutability":"nonpayable"},{"type":"function","name":"approveAndCall","inputs":[{"name":"spender","type":"address","internalType":"address"},{"name":"value","type":"uint256","internalType":"uint256"}],"outputs":[{"name":"","type":"bool","internalType":"bool"}],"stateMutability":"nonpayable"},{"type":"function","name":"approveAndCall","inputs":[{"name":"spender","type":"address","internalType":"address"},{"name":"value","type":"uint256","internalType":"uint256"},{"name":"data","type":"bytes","internalType":"bytes"}],"outputs":[{"name":"","type":"bool","internalType":"bool"}],"stateMutability":"nonpayable"},{"type":"function","name":"balanceOf","inputs":[{"name":"account","type":"address","internalType":"address"}],"outputs":[{"name":"","type":"uint256","internalType":"uint256"}],"stateMutability":"view"},{"type":"function","name":"burn","inputs":[{"name":"value","type":"uint256","internalType":"uint256"}],"outputs":[],"stateMutability":"nonpayable"},{"type":"function","name":"burnFrom","inputs":[{"name":"account","type":"address","internalType":"address"},{"name":"value","type":"uint256","internalType":"uint256"}],"outputs":[],"stateMutability":"nonpayable"},{"type":"function","name":"checkpoints","inputs":[{"name":"account","type":"address","internalType":"address"},{"name":"pos","type":"uint32","internalType":"uint32"}],"outputs":[{"name":"","type":"tuple","internalType":"struct Checkpoints.Checkpoint208","components":[{"name":"_key","type":"uint48","internalType":"uint48"},{"name":"_value","type":"uint208","internalType":"uint208"}]}],"stateMutability":"view"},{"type":"function","name":"clock","inputs":[],"outputs":[{"name":"","type":"uint48","internalType":"uint48"}],"stateMutability":"view"},{"type":"function","name":"decimals","inputs":[],"outputs":[{"name":"","type":"uint8","internalType":"uint8"}],"stateMutability":"view"},{"type":"function","name":"delegate","inputs":[{"name":"delegatee","type":"address","internalType":"address"}],"outputs":[],"stateMutability":"nonpayable"},{"type":"function","name":"delegateBySig","inputs":[{"name":"delegatee","type":"address","internalType":"address"},{"name":"nonce","type":"uint256","internalType":"uint256"},{"name":"expiry","type":"uint256","internalType":"uint256"},{"name":"v","type":"uint8","internalType":"uint8"},{"name":"r","type":"bytes32","internalType":"bytes32"},{"name":"s","type":"bytes32","internalType":"bytes32"}],"outputs":[],"stateMutability":"nonpayable"},{"type":"function","name":"delegates","inputs":[{"name":"account","type":"address","internalType":"address"}],"outputs":[{"name":"","type":"address","internalType":"address"}],"stateMutability":"view"},{"type":"function","name":"eip712Domain","inputs":[],"outputs":[{"name":"fields","type":"bytes1","internalType":"bytes1"},{"name":"name","type":"string","internalType":"string"},{"name":"version","type":"string","internalType":"string"},{"name":"chainId","type":"uint256","internalType":"uint256"},{"name":"verifyingContract","type":"address","internalType":"address"},{"name":"salt","type":"bytes32","internalType":"bytes32"},{"name":"extensions","type":"uint256[]","internalType":"uint256[]"}],"stateMutability":"view"},{"type":"function","name":"getPastTotalSupply","inputs":[{"name":"timepoint","type":"uint256","internalType":"uint256"}],"outputs":[{"name":"","type":"uint256","internalType":"uint256"}],"stateMutability":"view"},{"type":"function","name":"getPastVotes","inputs":[{"name":"account","type":"address","internalType":"address"},{"name":"timepoint","type":"uint256","internalType":"uint256"}],"outputs":[{"name":"","type":"uint256","internalType":"uint256"}],"stateMutability":"view"},{"type":"function","name":"getVotes","inputs":[{"name":"account","type":"address","internalType":"address"}],"outputs":[{"name":"","type":"uint256","internalType":"uint256"}],"stateMutability":"view"},{"type":"function","name":"initialize","inputs":[{"name":"initialOwner","type":"address","internalType":"address"}],"outputs":[],"stateMutability":"nonpayable"},{"type":"function","name":"mint","inputs":[{"name":"to","type":"address","internalType":"address"},{"name":"amount","type":"uint256","internalType":"uint256"}],"outputs":[],"stateMutability":"nonpayable"},{"type":"function","name":"name","inputs":[],"outputs":[{"name":"","type":"string","internalType":"string"}],"stateMutability":"view"},{"type":"function","name":"nonces","inputs":[{"name":"owner","type":"address","internalType":"address"}],"outputs":[{"name":"","type":"uint256","internalType":"uint256"}],"stateMutability":"view"},{"type":"function","name":"numCheckpoints","inputs":[{"name":"account","type":"address","internalType":"address"}],"outputs":[{"name":"","type":"uint32","internalType":"uint32"}],"stateMutability":"view"},{"type":"function","name":"owner","inputs":[],"outputs":[{"name":"","type":"address","internalType":"address"}],"stateMutability":"view"},{"type":"function","name":"permit","inputs":[{"name":"owner","type":"address","internalType":"address"},{"name":"spender","type":"address","internalType":"address"},{"name":"value","type":"uint256","internalType":"uint256"},{"name":"deadline","type":"uint256","internalType":"uint256"},{"name":"v","type":"uint8","internalType":"uint8"},{"name":"r","type":"bytes32","internalType":"bytes32"},{"name":"s","type":"bytes32","internalType":"bytes32"}],"outputs":[],"stateMutability":"nonpayable"},{"type":"function","name":"proxiableUUID","inputs":[],"outputs":[{"name":"","type":"bytes32","internalType":"bytes32"}],"stateMutability":"view"},{"type":"function","name":"renounceOwnership","inputs":[],"outputs":[],"stateMutability":"nonpayable"},{"type":"function","name":"supportsInterface","inputs":[{"name":"interfaceId","type":"bytes4","internalType":"bytes4"}],"outputs":[{"name":"","type":"bool","internalType":"bool"}],"stateMutability":"view"},{"type":"function","name":"symbol","inputs":[],"outputs":[{"name":"","type":"string","internalType":"string"}],"stateMutability":"view"},{"type":"function","name":"totalSupply","inputs":[],"outputs":[{"name":"","type":"uint256","internalType":"uint256"}],"stateMutability":"view"},{"type":"function","name":"transfer","inputs":[{"name":"to","type":"address","internalType":"address"},{"name":"value","type":"uint256","internalType":"uint256"}],"outputs":[{"name":"","type":"bool","internalType":"bool"}],"stateMutability":"nonpayable"},{"type":"function","name":"transferAndCall","inputs":[{"name":"to","type":"address","internalType":"address"},{"name":"value","type":"uint256","internalType":"uint256"}],"outputs":[{"name":"","type":"bool","internalType":"bool"}],"stateMutability":"nonpayable"},{"type":"function","name":"transferAndCall","inputs":[{"name":"to","type":"address","internalType":"address"},{"name":"value","type":"uint256","internalType":"uint256"},{"name":"data","type":"bytes","internalType":"bytes"}],"outputs":[{"name":"","type":"bool","internalType":"bool"}],"stateMutability":"nonpayable"},{"type":"function","name":"transferFrom","inputs":[{"name":"from","type":"address","internalType":"address"},{"name":"to","type":"address","internalType":"address"},{"name":"value","type":"uint256","internalType":"uint256"}],"outputs":[{"name":"","type":"bool","internalType":"bool"}],"stateMutability":"nonpayable"},{"type":"function","name":"transferFromAndCall","inputs":[{"name":"from","type":"address","internalType":"address"},{"name":"to","type":"address","internalType":"address"},{"name":"value","type":"uint256","internalType":"uint256"},{"name":"data","type":"bytes","internalType":"bytes"}],"outputs":[{"name":"","type":"bool","internalType":"bool"}],"stateMutability":"nonpayable"},{"type":"function","name":"transferFromAndCall","inputs":[{"name":"from","type":"address","internalType":"address"},{"name":"to","type":"address","internalType":"address"},{"name":"value","type":"uint256","internalType":"uint256"}],"outputs":[{"name":"","type":"bool","internalType":"bool"}],"stateMutability":"nonpayable"},{"type":"function","name":"transferOwnership","inputs":[{"name":"newOwner","type":"address","internalType":"address"}],"outputs":[],"stateMutability":"nonpayable"},{"type":"function","name":"upgradeToAndCall","inputs":[{"name":"newImplementation","type":"address","internalType":"address"},{"name":"data","type":"bytes","internalType":"bytes"}],"outputs":[],"stateMutability":"payable"},{"type":"event","name":"Approval","inputs":[{"name":"owner","type":"address","indexed":true,"internalType":"address"},{"name":"spender","type":"address","indexed":true,"internalType":"address"},{"name":"value","type":"uint256","indexed":false,"internalType":"uint256"}],"anonymous":false},{"type":"event","name":"DelegateChanged","inputs":[{"name":"delegator","type":"address","indexed":true,"internalType":"address"},{"name":"fromDelegate","type":"address","indexed":true,"internalType":"address"},{"name":"toDelegate","type":"address","indexed":true,"internalType":"address"}],"anonymous":false},{"type":"event","name":"DelegateVotesChanged","inputs":[{"name":"delegate","type":"address","indexed":true,"internalType":"address"},{"name":"previousVotes","type":"uint256","indexed":false,"internalType":"uint256"},{"name":"newVotes","type":"uint256","indexed":false,"internalType":"uint256"}],"anonymous":false},{"type":"event","name":"EIP712DomainChanged","inputs":[],"anonymous":false},{"type":"event","name":"Initialized","inputs":[{"name":"version","type":"uint64","indexed":false,"internalType":"uint64"}],"anonymous":false},{"type":"event","name":"OwnershipTransferred","inputs":[{"name":"previousOwner","type":"address","indexed":true,"internalType":"address"},{"name":"newOwner","type":"address","indexed":true,"internalType":"address"}],"anonymous":false},{"type":"event","name":"Transfer","inputs":[{"name":"from","type":"address","indexed":true,"internalType":"address"},{"name":"to","type":"address","indexed":true,"internalType":"address"},{"name":"value","type":"uint256","indexed":false,"internalType":"uint256"}],"anonymous":false},{"type":"event","name":"Upgraded","inputs":[{"name":"implementation","type":"address","indexed":true,"internalType":"address"}],"anonymous":false},{"type":"error","name":"AddressEmptyCode","inputs":[{"name":"target","type":"address","internalType":"address"}]},{"type":"error","name":"CheckpointUnorderedInsertion","inputs":[]},{"type":"error","name":"ECDSAInvalidSignature","inputs":[]},{"type":"error","name":"ECDSAInvalidSignatureLength","inputs":[{"name":"length","type":"uint256","internalType":"uint256"}]},{"type":"error","name":"ECDSAInvalidSignatureS","inputs":[{"name":"s","type":"bytes32","internalType":"bytes32"}]},{"type":"error","name":"ERC1363ApproveFailed","inputs":[{"name":"spender","type":"address","internalType":"address"},{"name":"value","type":"uint256","internalType":"uint256"}]},{"type":"error","name":"ERC1363InvalidReceiver","inputs":[{"name":"receiver","type":"address","internalType":"address"}]},{"type":"error","name":"ERC1363InvalidSpender","inputs":[{"name":"spender","type":"address","internalType":"address"}]},{"type":"error","name":"ERC1363TransferFailed","inputs":[{"name":"receiver","type":"address","internalType":"address"},{"name":"value","type":"uint256","internalType":"uint256"}]},{"type":"error","name":"ERC1363TransferFromFailed","inputs":[{"name":"sender","type":"address","internalType":"address"},{"name":"receiver","type":"address","internalType":"address"},{"name":"value","type":"uint256","internalType":"uint256"}]},{"type":"error","name":"ERC1967InvalidImplementation","inputs":[{"name":"implementation","type":"address","internalType":"address"}]},{"type":"error","name":"ERC1967NonPayable","inputs":[]},{"type":"error","name":"ERC20ExceededSafeSupply","inputs":[{"name":"increasedSupply","type":"uint256","internalType":"uint256"},{"name":"cap","type":"uint256","internalType":"uint256"}]},{"type":"error","name":"ERC20InsufficientAllowance","inputs":[{"name":"spender","type":"address","internalType":"address"},{"name":"allowance","type":"uint256","internalType":"uint256"},{"name":"needed","type":"uint256","internalType":"uint256"}]},{"type":"error","name":"ERC20InsufficientBalance","inputs":[{"name":"sender","type":"address","internalType":"address"},{"name":"balance","type":"uint256","internalType":"uint256"},{"name":"needed","type":"uint256","internalType":"uint256"}]},{"type":"error","name":"ERC20InvalidApprover","inputs":[{"name":"approver","type":"address","internalType":"address"}]},{"type":"error","name":"ERC20InvalidReceiver","inputs":[{"name":"receiver","type":"address","internalType":"address"}]},{"type":"error","name":"ERC20InvalidSender","inputs":[{"name":"sender","type":"address","internalType":"address"}]},{"type":"error","name":"ERC20InvalidSpender","inputs":[{"name":"spender","type":"address","internalType":"address"}]},{"type":"error","name":"ERC2612ExpiredSignature","inputs":[{"name":"deadline","type":"uint256","internalType":"uint256"}]},{"type":"error","name":"ERC2612InvalidSigner","inputs":[{"name":"signer","type":"address","internalType":"address"},{"name":"owner","type":"address","internalType":"address"}]},{"type":"error","name":"ERC5805FutureLookup","inputs":[{"name":"timepoint","type":"uint256","internalType":"uint256"},{"name":"clock","type":"uint48","internalType":"uint48"}]},{"type":"error","name":"ERC6372InconsistentClock","inputs":[]},{"type":"error","name":"FailedCall","inputs":[]},{"type":"error","name":"InvalidAccountNonce","inputs":[{"name":"account","type":"address","internalType":"address"},{"name":"currentNonce","type":"uint256","internalType":"uint256"}]},{"type":"error","name":"InvalidInitialization","inputs":[]},{"type":"error","name":"NotInitializing","inputs":[]},{"type":"error","name":"OwnableInvalidOwner","inputs":[{"name":"owner","type":"address","internalType":"address"}]},{"type":"error","name":"OwnableUnauthorizedAccount","inputs":[{"name":"account","type":"address","internalType":"address"}]},{"type":"error","name":"SafeCastOverflowedUintDowncast","inputs":[{"name":"bits","type":"uint8","internalType":"uint8"},{"name":"value","type":"uint256","internalType":"uint256"}]},{"type":"error","name":"UUPSUnauthorizedCallContext","inputs":[]},{"type":"error","name":"UUPSUnsupportedProxiableUUID","inputs":[{"name":"slot","type":"bytes32","internalType":"bytes32"}]},{"type":"error","name":"VotesExpiredSignature","inputs":[{"name":"expiry","type":"uint256","internalType":"uint256"}]}],"bytecode":{"object":"0x60a06040523073ffffffffffffffffffffffffffffffffffffffff1660809073ffffffffffffffffffffffffffffffffffffffff16815250348015610042575f5ffd5b5061005161005660201b60201c565b6101d1565b5f61006561015460201b60201c565b9050805f0160089054906101000a900460ff16156100af576040517ff92ee8a900000000000000000000000000000000000000000000000000000000815260040160405180910390fd5b67ffffffffffffffff8016815f015f9054906101000a900467ffffffffffffffff1667ffffffffffffffff16146101515767ffffffffffffffff815f015f6101000a81548167ffffffffffffffff021916908367ffffffffffffffff1602179055507fc7f505b2f371ae2175ee4913f4499e1f2633a7b5936321eed1cdaeb6115181d267ffffffffffffffff60405161014891906101b8565b60405180910390a15b50565b5f5f61016461016d60201b60201c565b90508091505090565b5f7ff0c57e16840df040f15088dc2f81fe391c3923bec73e23a9662efc9c229c6a005f1b905090565b5f67ffffffffffffffff82169050919050565b6101b281610196565b82525050565b5f6020820190506101cb5f8301846101a9565b92915050565b608051615c686101f75f395f818161214c015281816121a1015261235b0152615c685ff3fe60806040526004361061025b575f3560e01c806370a0823111610143578063ad3cb1cc116100b5578063cae9ca5111610079578063cae9ca5114610957578063d505accf14610993578063d8fbe994146109bb578063dd62ed3e146109f7578063f1127ed814610a33578063f2fde38b14610a6f5761025b565b8063ad3cb1cc14610877578063b8488052146108a1578063c1d34b89146108cb578063c3cda52014610907578063c4d66de81461092f5761025b565b80638da5cb5b116101075780638da5cb5b146107455780638e539e8c1461076f57806391ddadf4146107ab57806395d89b41146107d55780639ab24eb0146107ff578063a9059cbb1461083b5761025b565b806370a082311461065f578063715018a61461069b57806379cc6790146106b15780637ecebe00146106d957806384b0196e146107155761025b565b80633644e515116101dc5780634bf5d7e9116101a05780634bf5d7e91461054f5780634f1ef2861461057957806352d1902d14610595578063587cde1e146105bf5780635c19a95c146105fb5780636fcfff45146106235761025b565b80633644e5151461045d5780633a46b1a8146104875780634000aea0146104c357806340c10f19146104ff57806342966c68146105275761025b565b806323b872dd1161022357806323b872dd146103675780632d2c5565146103a3578063313ce567146103cd5780633177029f146103f757806332cb6b0c146104335761025b565b806301ffc9a71461025f57806306fdde031461029b578063095ea7b3146102c55780631296ee621461030157806318160ddd1461033d575b5f5ffd5b34801561026a575f5ffd5b50610285600480360381019061028091906145e7565b610a97565b604051610292919061462c565b60405180910390f35b3480156102a6575f5ffd5b506102af610b10565b6040516102bc91906146b5565b60405180910390f35b3480156102d0575f5ffd5b506102eb60048036038101906102e69190614762565b610bae565b6040516102f8919061462c565b60405180910390f35b34801561030c575f5ffd5b5061032760048036038101906103229190614762565b610bd0565b604051610334919061462c565b60405180910390f35b348015610348575f5ffd5b50610351610bf2565b60405161035e91906147af565b60405180910390f35b348015610372575f5ffd5b5061038d600480360381019061038891906147c8565b610c09565b60405161039a919061462c565b60405180910390f35b3480156103ae575f5ffd5b506103b7610c37565b6040516103c49190614827565b60405180910390f35b3480156103d8575f5ffd5b506103e1610c4f565b6040516103ee919061485b565b60405180910390f35b348015610402575f5ffd5b5061041d60048036038101906104189190614762565b610c57565b60405161042a919061462c565b60405180910390f35b34801561043e575f5ffd5b50610447610c79565b60405161045491906147af565b60405180910390f35b348015610468575f5ffd5b50610471610c89565b60405161047e919061488c565b60405180910390f35b348015610492575f5ffd5b506104ad60048036038101906104a89190614762565b610c97565b6040516104ba91906147af565b60405180910390f35b3480156104ce575f5ffd5b506104e960048036038101906104e491906149d1565b610d21565b6040516104f6919061462c565b60405180910390f35b34801561050a575f5ffd5b5061052560048036038101906105209190614762565b610d95565b005b348015610532575f5ffd5b5061054d60048036038101906105489190614a3d565b610dcf565b005b34801561055a575f5ffd5b50610563610de3565b60405161057091906146b5565b60405180910390f35b610593600480360381019061058e9190614a68565b610e20565b005b3480156105a0575f5ffd5b506105a9610e3f565b6040516105b6919061488c565b60405180910390f35b3480156105ca575f5ffd5b506105e560048036038101906105e09190614ac2565b610e70565b6040516105f29190614827565b60405180910390f35b348015610606575f5ffd5b50610621600480360381019061061c9190614ac2565b610ee2565b005b34801561062e575f5ffd5b5061064960048036038101906106449190614ac2565b610efb565b6040516106569190614b0b565b60405180910390f35b34801561066a575f5ffd5b5061068560048036038101906106809190614ac2565b610f0c565b60405161069291906147af565b60405180910390f35b3480156106a6575f5ffd5b506106af610f5f565b005b3480156106bc575f5ffd5b506106d760048036038101906106d29190614762565b610f72565b005b3480156106e4575f5ffd5b506106ff60048036038101906106fa9190614ac2565b610f92565b60405161070c91906147af565b60405180910390f35b348015610720575f5ffd5b50610729610fa3565b60405161073c9796959493929190614c15565b60405180910390f35b348015610750575f5ffd5b506107596110ac565b6040516107669190614827565b60405180910390f35b34801561077a575f5ffd5b5061079560048036038101906107909190614a3d565b6110e1565b6040516107a291906147af565b60405180910390f35b3480156107b6575f5ffd5b506107bf61112f565b6040516107cc9190614cb7565b60405180910390f35b3480156107e0575f5ffd5b506107e9611136565b6040516107f691906146b5565b60405180910390f35b34801561080a575f5ffd5b5061082560048036038101906108209190614ac2565b6111d4565b60405161083291906147af565b60405180910390f35b348015610846575f5ffd5b50610861600480360381019061085c9190614762565b61124b565b60405161086e919061462c565b60405180910390f35b348015610882575f5ffd5b5061088b61126d565b60405161089891906146b5565b60405180910390f35b3480156108ac575f5ffd5b506108b56112a6565b6040516108c291906147af565b60405180910390f35b3480156108d6575f5ffd5b506108f160048036038101906108ec9190614cd0565b6112b6565b6040516108fe919061462c565b60405180910390f35b348015610912575f5ffd5b5061092d60048036038101906109289190614da4565b611327565b005b34801561093a575f5ffd5b5061095560048036038101906109509190614ac2565b6113ec565b005b348015610962575f5ffd5b5061097d600480360381019061097891906149d1565b61167f565b60405161098a919061462c565b60405180910390f35b34801561099e575f5ffd5b506109b960048036038101906109b49190614e2d565b6116eb565b005b3480156109c6575f5ffd5b506109e160048036038101906109dc91906147c8565b611830565b6040516109ee919061462c565b60405180910390f35b348015610a02575f5ffd5b50610a1d6004803603810190610a189190614eca565b611854565b604051610a2a91906147af565b60405180910390f35b348015610a3e575f5ffd5b50610a596004803603810190610a549190614f32565b6118e4565b604051610a669190614fe0565b60405180910390f35b348015610a7a575f5ffd5b50610a956004803603810190610a909190614ac2565b6118fe565b005b5f7fb0202a11000000000000000000000000000000000000000000000000000000007bffffffffffffffffffffffffffffffffffffffffffffffffffffffff1916827bffffffffffffffffffffffffffffffffffffffffffffffffffffffff19161480610b095750610b0882611982565b5b9050919050565b60605f610b1b6119eb565b9050806003018054610b2c90615026565b80601f0160208091040260200160405190810160405280929190818152602001828054610b5890615026565b8015610ba35780601f10610b7a57610100808354040283529160200191610ba3565b820191905f5260205f20905b815481529060010190602001808311610b8657829003601f168201915b505050505091505090565b5f5f610bb8611a12565b9050610bc5818585611a19565b600191505092915050565b5f610bea838360405180602001604052805f815250610d21565b905092915050565b5f5f610bfc6119eb565b9050806002015491505090565b5f5f610c13611a12565b9050610c20858285611a2b565b610c2b858585611abe565b60019150509392505050565b7342f6e0bc808ab9810b36092b9654109dd2ab4be981565b5f6012905090565b5f610c71838360405180602001604052805f81525061167f565b905092915050565b6b0409f9cbc7c4a04c2200000081565b5f610c92611bae565b905090565b5f5f610ca1611bbc565b9050610cfc610caf84611be3565b826001015f8773ffffffffffffffffffffffffffffffffffffffff1673ffffffffffffffffffffffffffffffffffffffff1681526020019081526020015f20611c4e90919063ffffffff16565b79ffffffffffffffffffffffffffffffffffffffffffffffffffff1691505092915050565b5f610d2c848461124b565b610d6f5783836040517f231b03ae000000000000000000000000000000000000000000000000000000008152600401610d66929190615056565b60405180910390fd5b610d8a610d7a611a12565b610d82611a12565b868686611d3e565b600190509392505050565b610d9d611f25565b610da78282611fac565b6b0409f9cbc7c4a04c22000000610dbc610bf2565b1115610dcb57610dca61202b565b5b5050565b610de0610dda611a12565b826120cb565b50565b60606040518060400160405280600e81526020017f6d6f64653d74696d657374616d70000000000000000000000000000000000000815250905090565b610e2861214a565b610e3182612230565b610e3b828261223b565b5050565b5f610e48612359565b7f360894a13ba1a3210667c828492db98dca3e2076cc3735a920a3ca505d382bbc5f1b905090565b5f5f610e7a611bbc565b9050805f015f8473ffffffffffffffffffffffffffffffffffffffff1673ffffffffffffffffffffffffffffffffffffffff1681526020019081526020015f205f9054906101000a900473ffffffffffffffffffffffffffffffffffffffff16915050919050565b5f610eeb611a12565b9050610ef781836123e0565b5050565b5f610f05826124fd565b9050919050565b5f5f610f166119eb565b9050805f015f8473ffffffffffffffffffffffffffffffffffffffff1673ffffffffffffffffffffffffffffffffffffffff1681526020019081526020015f2054915050919050565b610f67611f25565b610f705f612560565b565b610f8482610f7e611a12565b83611a2b565b610f8e82826120cb565b5050565b5f610f9c82612631565b9050919050565b5f6060805f5f5f60605f610fb5612642565b90505f5f1b815f0154148015610fd057505f5f1b8160010154145b61100f576040517f08c379a0000000000000000000000000000000000000000000000000000000008152600401611006906150c7565b60405180910390fd5b611017612669565b61101f612707565b46305f5f1b5f67ffffffffffffffff81111561103e5761103d6148ad565b5b60405190808252806020026020018201604052801561106c5781602001602082028036833780820191505090505b507f0f0000000000000000000000000000000000000000000000000000000000000095949392919097509750975097509750975097505090919293949596565b5f5f6110b66127a5565b9050805f015f9054906101000a900473ffffffffffffffffffffffffffffffffffffffff1691505090565b5f5f6110eb611bbc565b905061110b6110f984611be3565b82600201611c4e90919063ffffffff16565b79ffffffffffffffffffffffffffffffffffffffffffffffffffff16915050919050565b5f42905090565b60605f6111416119eb565b905080600401805461115290615026565b80601f016020809104026020016040519081016040528092919081815260200182805461117e90615026565b80156111c95780601f106111a0576101008083540402835291602001916111c9565b820191905f5260205f20905b8154815290600101906020018083116111ac57829003601f168201915b505050505091505090565b5f5f6111de611bbc565b9050611227816001015f8573ffffffffffffffffffffffffffffffffffffffff1673ffffffffffffffffffffffffffffffffffffffff1681526020019081526020015f206127cc565b79ffffffffffffffffffffffffffffffffffffffffffffffffffff16915050919050565b5f5f611255611a12565b9050611262818585611abe565b600191505092915050565b6040518060400160405280600581526020017f352e302e3000000000000000000000000000000000000000000000000000000081525081565b6b01f04ef12cb04cf15800000081565b5f6112c2858585610c09565b611307578484846040517fb56855e60000000000000000000000000000000000000000000000000000000081526004016112fe939291906150e5565b60405180910390fd5b61131b611312611a12565b86868686611d3e565b60019050949350505050565b8342111561136c57836040517f4683af0e00000000000000000000000000000000000000000000000000000000815260040161136391906147af565b60405180910390fd5b5f6113cd6113c57fe48329057bfd03d55e49b547132e39cffd9c1820ad7b9d4c5307691425d15adf8989896040516020016113aa949392919061511a565b6040516020818303038152906040528051906020012061282e565b858585612847565b90506113d98187612875565b6113e381886123e0565b50505050505050565b5f6113f56128cc565b90505f815f0160089054906101000a900460ff161590505f825f015f9054906101000a900467ffffffffffffffff1690505f5f8267ffffffffffffffff1614801561143d5750825b90505f60018367ffffffffffffffff1614801561147057505f3073ffffffffffffffffffffffffffffffffffffffff163b145b90508115801561147e575080155b156114b5576040517ff92ee8a900000000000000000000000000000000000000000000000000000000815260040160405180910390fd5b6001855f015f6101000a81548167ffffffffffffffff021916908367ffffffffffffffff1602179055508315611502576001855f0160086101000a81548160ff0219169083151502179055505b6115766040518060400160405280600b81526020017f7a7354657374204275726e0000000000000000000000000000000000000000008152506040518060400160405280600481526020017f7a735442000000000000000000000000000000000000000000000000000000008152506128df565b61157e6128f5565b611587866128ff565b61158f612913565b6115cd6040518060400160405280600b81526020017f7a7354657374204275726e00000000000000000000000000000000000000000081525061291d565b6115d5612967565b6115dd612971565b61161d7342f6e0bc808ab9810b36092b9654109dd2ab4be96115fd610c4f565b600a61160991906152b9565b632cb417806116189190615303565b611fac565b8315611677575f855f0160086101000a81548160ff0219169083151502179055507fc7f505b2f371ae2175ee4913f4499e1f2633a7b5936321eed1cdaeb6115181d2600160405161166e9190615399565b60405180910390a15b505050505050565b5f61168a8484610bae565b6116cd5783836040517f50e555c40000000000000000000000000000000000000000000000000000000081526004016116c4929190615056565b60405180910390fd5b6116e06116d8611a12565b85858561297b565b600190509392505050565b8342111561173057836040517f6279130200000000000000000000000000000000000000000000000000000000815260040161172791906147af565b60405180910390fd5b5f7f6e71edae12b1b97f4d1f60370fef10105fa2faae0126114a169c64845d6126c988888861175e8c612b5f565b89604051602001611774969594939291906153b2565b6040516020818303038152906040528051906020012090505f6117968261282e565b90505f6117a582878787612847565b90508973ffffffffffffffffffffffffffffffffffffffff168173ffffffffffffffffffffffffffffffffffffffff161461181957808a6040517f4b800e46000000000000000000000000000000000000000000000000000000008152600401611810929190615411565b60405180910390fd5b6118248a8a8a611a19565b50505050505050505050565b5f61184b84848460405180602001604052805f8152506112b6565b90509392505050565b5f5f61185e6119eb565b9050806001015f8573ffffffffffffffffffffffffffffffffffffffff1673ffffffffffffffffffffffffffffffffffffffff1681526020019081526020015f205f8473ffffffffffffffffffffffffffffffffffffffff1673ffffffffffffffffffffffffffffffffffffffff1681526020019081526020015f205491505092915050565b6118ec614545565b6118f68383612bbf565b905092915050565b611906611f25565b5f73ffffffffffffffffffffffffffffffffffffffff168173ffffffffffffffffffffffffffffffffffffffff1603611976575f6040517f1e4fbdf700000000000000000000000000000000000000000000000000000000815260040161196d9190614827565b60405180910390fd5b61197f81612560565b50565b5f7f01ffc9a7000000000000000000000000000000000000000000000000000000007bffffffffffffffffffffffffffffffffffffffffffffffffffffffff1916827bffffffffffffffffffffffffffffffffffffffffffffffffffffffff1916149050919050565b5f7f52c63247e1f47db19d5ce0460030c497f067ca4cebf71ba98eeadabe20bace00905090565b5f33905090565b611a268383836001612c2c565b505050565b5f611a368484611854565b90507fffffffffffffffffffffffffffffffffffffffffffffffffffffffffffffffff811015611ab85781811015611aa9578281836040517ffb8f41b2000000000000000000000000000000000000000000000000000000008152600401611aa093929190615438565b60405180910390fd5b611ab784848484035f612c2c565b5b50505050565b5f73ffffffffffffffffffffffffffffffffffffffff168373ffffffffffffffffffffffffffffffffffffffff1603611b2e575f6040517f96c6fd1e000000000000000000000000000000000000000000000000000000008152600401611b259190614827565b60405180910390fd5b5f73ffffffffffffffffffffffffffffffffffffffff168273ffffffffffffffffffffffffffffffffffffffff1603611b9e575f6040517fec442f05000000000000000000000000000000000000000000000000000000008152600401611b959190614827565b60405180910390fd5b611ba9838383612e09565b505050565b5f611bb7612e19565b905090565b5f7fe8b26c30fad74198956032a3533d903385d56dd795af560196f9c78d4af40d00905090565b5f5f611bed61112f565b90508065ffffffffffff168310611c3d5782816040517fecd3f81e000000000000000000000000000000000000000000000000000000008152600401611c3492919061546d565b60405180910390fd5b611c4683612e7c565b915050919050565b5f5f835f018054905090505f5f90505f8290506005831115611cd2575f611c7484612ed5565b84611c7f9190615494565b9050611c8d875f018261306f565b5f015f9054906101000a900465ffffffffffff1665ffffffffffff168665ffffffffffff161015611cc057809150611cd0565b600181611ccd91906154c7565b92505b505b5f611ce1875f01878585613081565b90505f8114611d3057611d02875f01600183611cfd9190615494565b61306f565b5f0160069054906101000a900479ffffffffffffffffffffffffffffffffffffffffffffffffffff16611d32565b5f5b94505050505092915050565b5f8373ffffffffffffffffffffffffffffffffffffffff163b03611d9957826040517f8a96cd9c000000000000000000000000000000000000000000000000000000008152600401611d909190614827565b60405180910390fd5b8273ffffffffffffffffffffffffffffffffffffffff166388a7ca5c868685856040518563ffffffff1660e01b8152600401611dd8949392919061554c565b6020604051808303815f875af1925050508015611e1357506040513d601f19601f82011682018060405250810190611e1091906155aa565b60015b611e94573d805f8114611e41576040519150601f19603f3d011682016040523d82523d5f602084013e611e46565b606091505b505f815103611e8c57836040517f8a96cd9c000000000000000000000000000000000000000000000000000000008152600401611e839190614827565b60405180910390fd5b805181602001fd5b6388a7ca5c60e01b7bffffffffffffffffffffffffffffffffffffffffffffffffffffffff1916817bffffffffffffffffffffffffffffffffffffffffffffffffffffffff191614611f1d57836040517f8a96cd9c000000000000000000000000000000000000000000000000000000008152600401611f149190614827565b60405180910390fd5b505050505050565b611f2d611a12565b73ffffffffffffffffffffffffffffffffffffffff16611f4b6110ac565b73ffffffffffffffffffffffffffffffffffffffff1614611faa57611f6e611a12565b6040517f118cdaa7000000000000000000000000000000000000000000000000000000008152600401611fa19190614827565b60405180910390fd5b565b5f73ffffffffffffffffffffffffffffffffffffffff168273ffffffffffffffffffffffffffffffffffffffff160361201c575f6040517fec442f050000000000000000000000000000000000000000000000000000000081526004016120139190614827565b60405180910390fd5b6120275f8383612e09565b5050565b5f612034610bf2565b90506b01f04ef12cb04cf158000000811161204f57506120c9565b5f6b01f04ef12cb04cf158000000826120689190615494565b90505f6120887342f6e0bc808ab9810b36092b9654109dd2ab4be9610f0c565b90505f81831115612099578161209b565b825b90505f8111156120c4576120c37342f6e0bc808ab9810b36092b9654109dd2ab4be9826120cb565b5b505050505b565b5f73ffffffffffffffffffffffffffffffffffffffff168273ffffffffffffffffffffffffffffffffffffffff160361213b575f6040517f96c6fd1e0000000000000000000000000000000000000000000000000000000081526004016121329190614827565b60405180910390fd5b612146825f83612e09565b5050565b7f000000000000000000000000000000000000000000000000000000000000000073ffffffffffffffffffffffffffffffffffffffff163073ffffffffffffffffffffffffffffffffffffffff1614806121f757507f000000000000000000000000000000000000000000000000000000000000000073ffffffffffffffffffffffffffffffffffffffff166121de6130f6565b73ffffffffffffffffffffffffffffffffffffffff1614155b1561222e576040517fe07c8dba00000000000000000000000000000000000000000000000000000000815260040160405180910390fd5b565b612238611f25565b50565b8173ffffffffffffffffffffffffffffffffffffffff166352d1902d6040518163ffffffff1660e01b8152600401602060405180830381865afa9250505080156122a357506040513d601f19601f820116820180604052508101906122a091906155e9565b60015b6122e457816040517f4c9c8ce30000000000000000000000000000000000000000000000000000000081526004016122db9190614827565b60405180910390fd5b7f360894a13ba1a3210667c828492db98dca3e2076cc3735a920a3ca505d382bbc5f1b811461234a57806040517faa1d49a4000000000000000000000000000000000000000000000000000000008152600401612341919061488c565b60405180910390fd5b6123548383613149565b505050565b7f000000000000000000000000000000000000000000000000000000000000000073ffffffffffffffffffffffffffffffffffffffff163073ffffffffffffffffffffffffffffffffffffffff16146123de576040517fe07c8dba00000000000000000000000000000000000000000000000000000000815260040160405180910390fd5b565b5f6123e9611bbc565b90505f6123f584610e70565b905082825f015f8673ffffffffffffffffffffffffffffffffffffffff1673ffffffffffffffffffffffffffffffffffffffff1681526020019081526020015f205f6101000a81548173ffffffffffffffffffffffffffffffffffffffff021916908373ffffffffffffffffffffffffffffffffffffffff1602179055508273ffffffffffffffffffffffffffffffffffffffff168173ffffffffffffffffffffffffffffffffffffffff168573ffffffffffffffffffffffffffffffffffffffff167f3134e8a2e6d97e929a7e54011ea5485d7d196dd5f0ba4d4ef95803e8e3fc257f60405160405180910390a46124f781846124f2876131bb565b6131cc565b50505050565b5f5f612507611bbc565b9050612558612553826001015f8673ffffffffffffffffffffffffffffffffffffffff1673ffffffffffffffffffffffffffffffffffffffff1681526020019081526020015f2061344c565b61345b565b915050919050565b5f6125696127a5565b90505f815f015f9054906101000a900473ffffffffffffffffffffffffffffffffffffffff16905082825f015f6101000a81548173ffffffffffffffffffffffffffffffffffffffff021916908373ffffffffffffffffffffffffffffffffffffffff1602179055508273ffffffffffffffffffffffffffffffffffffffff168173ffffffffffffffffffffffffffffffffffffffff167f8be0079c531659141344cd1fd0a4f28419497f9722a3daafe3b4186f6b6457e060405160405180910390a3505050565b5f61263b826134b2565b9050919050565b5f7fa16a46d94261c7517cc8ff89f61c0ce93598e3c849801011dee649a6a557d100905090565b60605f612674612642565b905080600201805461268590615026565b80601f01602080910402602001604051908101604052809291908181526020018280546126b190615026565b80156126fc5780601f106126d3576101008083540402835291602001916126fc565b820191905f5260205f20905b8154815290600101906020018083116126df57829003601f168201915b505050505091505090565b60605f612712612642565b905080600301805461272390615026565b80601f016020809104026020016040519081016040528092919081815260200182805461274f90615026565b801561279a5780601f106127715761010080835404028352916020019161279a565b820191905f5260205f20905b81548152906001019060200180831161277d57829003601f168201915b505050505091505090565b5f7f9016d09d72d40fdae2fd8ceac6b6234c7706214fd39c1cd1e609a0528c199300905090565b5f5f825f018054905090505f8114612824576127f6835f016001836127f19190615494565b61306f565b5f0160069054906101000a900479ffffffffffffffffffffffffffffffffffffffffffffffffffff16612826565b5f5b915050919050565b5f61284061283a611bae565b83613505565b9050919050565b5f5f5f5f61285788888888613545565b925092509250612867828261362c565b829350505050949350505050565b5f61287f83612b5f565b90508082146128c75782816040517f752d88c00000000000000000000000000000000000000000000000000000000081526004016128be929190615056565b60405180910390fd5b505050565b5f5f6128d661378e565b90508091505090565b6128e76137b7565b6128f182826137f7565b5050565b6128fd6137b7565b565b6129076137b7565b61291081613833565b50565b61291b6137b7565b565b6129256137b7565b612964816040518060400160405280600181526020017f31000000000000000000000000000000000000000000000000000000000000008152506138b7565b50565b61296f6137b7565b565b6129796137b7565b565b5f8373ffffffffffffffffffffffffffffffffffffffff163b036129d657826040517fdeb6d3ed0000000000000000000000000000000000000000000000000000000081526004016129cd9190614827565b60405180910390fd5b8273ffffffffffffffffffffffffffffffffffffffff16637b04a2d08584846040518463ffffffff1660e01b8152600401612a1393929190615614565b6020604051808303815f875af1925050508015612a4e57506040513d601f19601f82011682018060405250810190612a4b91906155aa565b60015b612acf573d805f8114612a7c576040519150601f19603f3d011682016040523d82523d5f602084013e612a81565b606091505b505f815103612ac757836040517fdeb6d3ed000000000000000000000000000000000000000000000000000000008152600401612abe9190614827565b60405180910390fd5b805181602001fd5b637b04a2d060e01b7bffffffffffffffffffffffffffffffffffffffffffffffffffffffff1916817bffffffffffffffffffffffffffffffffffffffffffffffffffffffff191614612b5857836040517fdeb6d3ed000000000000000000000000000000000000000000000000000000008152600401612b4f9190614827565b60405180910390fd5b5050505050565b5f5f612b69613908565b9050805f015f8473ffffffffffffffffffffffffffffffffffffffff1673ffffffffffffffffffffffffffffffffffffffff1681526020019081526020015f205f81548092919060010191905055915050919050565b612bc7614545565b5f612bd0611bbc565b9050612c2383826001015f8773ffffffffffffffffffffffffffffffffffffffff1673ffffffffffffffffffffffffffffffffffffffff1681526020019081526020015f2061392f90919063ffffffff16565b91505092915050565b5f612c356119eb565b90505f73ffffffffffffffffffffffffffffffffffffffff168573ffffffffffffffffffffffffffffffffffffffff1603612ca7575f6040517fe602df05000000000000000000000000000000000000000000000000000000008152600401612c9e9190614827565b60405180910390fd5b5f73ffffffffffffffffffffffffffffffffffffffff168473ffffffffffffffffffffffffffffffffffffffff1603612d17575f6040517f94280d62000000000000000000000000000000000000000000000000000000008152600401612d0e9190614827565b60405180910390fd5b82816001015f8773ffffffffffffffffffffffffffffffffffffffff1673ffffffffffffffffffffffffffffffffffffffff1681526020019081526020015f205f8673ffffffffffffffffffffffffffffffffffffffff1673ffffffffffffffffffffffffffffffffffffffff1681526020019081526020015f20819055508115612e02578373ffffffffffffffffffffffffffffffffffffffff168573ffffffffffffffffffffffffffffffffffffffff167f8c5be1e5ebec7d5bd14f71427d1e84f3dd0314c0f7b2291e5b200ac8c7c3b92585604051612df991906147af565b60405180910390a35b5050505050565b612e148383836139fe565b505050565b5f7f8b73c3c69bb8fe3d512ecc4cf759cc79239f7b179b0ffacaa9a75d522b39400f612e43613aac565b612e4b613b22565b4630604051602001612e61959493929190615650565b60405160208183030381529060405280519060200120905090565b5f65ffffffffffff8016821115612ecd576030826040517f6dfcc650000000000000000000000000000000000000000000000000000000008152600401612ec49291906156da565b60405180910390fd5b819050919050565b5f60018211612ee65781905061306a565b5f8290505f600190507001000000000000000000000000000000008210612f1657608082901c9150604081901b90505b680100000000000000008210612f3557604082901c9150602081901b90505b6401000000008210612f5057602082901c9150601081901b90505b620100008210612f6957601082901c9150600881901b90505b6101008210612f8157600882901c9150600481901b90505b60108210612f9857600482901c9150600281901b90505b60048210612fa857600181901b90505b600181600302901c90506001818581612fc457612fc3615701565b5b048201901c90506001818581612fdd57612fdc615701565b5b048201901c90506001818581612ff657612ff5615701565b5b048201901c9050600181858161300f5761300e615701565b5b048201901c9050600181858161302857613027615701565b5b048201901c9050600181858161304157613040615701565b5b048201901c905061306381858161305b5761305a615701565b5b048211613b99565b8103925050505b919050565b5f825f528160205f2001905092915050565b5f5b818310156130eb575f6130968484613ba4565b90508465ffffffffffff166130ab878361306f565b5f015f9054906101000a900465ffffffffffff1665ffffffffffff1611156130d5578092506130e5565b6001816130e291906154c7565b93505b50613083565b819050949350505050565b5f6131227f360894a13ba1a3210667c828492db98dca3e2076cc3735a920a3ca505d382bbc5f1b613bc9565b5f015f9054906101000a900473ffffffffffffffffffffffffffffffffffffffff16905090565b61315282613bd2565b8173ffffffffffffffffffffffffffffffffffffffff167fbc7cd75a20ee27fd9adebab32041f755214dbc6bffa90cc0225b39da2e5c2d3b60405160405180910390a25f815111156131ae576131a88282613c9b565b506131b7565b6131b6613d1b565b5b5050565b5f6131c582610f0c565b9050919050565b5f6131d5611bbc565b90508273ffffffffffffffffffffffffffffffffffffffff168473ffffffffffffffffffffffffffffffffffffffff161415801561321257505f82115b15613446575f73ffffffffffffffffffffffffffffffffffffffff168473ffffffffffffffffffffffffffffffffffffffff161461332e575f5f61329f836001015f8873ffffffffffffffffffffffffffffffffffffffff1673ffffffffffffffffffffffffffffffffffffffff1681526020019081526020015f20613d5761329a87613d6c565b613dd9565b79ffffffffffffffffffffffffffffffffffffffffffffffffffff16915079ffffffffffffffffffffffffffffffffffffffffffffffffffff1691508573ffffffffffffffffffffffffffffffffffffffff167fdec2bacdd2f05b59de34da9b523dff8be42e5e38e818c82fdb0bae774387a724838360405161332392919061572e565b60405180910390a250505b5f73ffffffffffffffffffffffffffffffffffffffff168373ffffffffffffffffffffffffffffffffffffffff1614613445575f5f6133b6836001015f8773ffffffffffffffffffffffffffffffffffffffff1673ffffffffffffffffffffffffffffffffffffffff1681526020019081526020015f20613e186133b187613d6c565b613dd9565b79ffffffffffffffffffffffffffffffffffffffffffffffffffff16915079ffffffffffffffffffffffffffffffffffffffffffffffffffff1691508473ffffffffffffffffffffffffffffffffffffffff167fdec2bacdd2f05b59de34da9b523dff8be42e5e38e818c82fdb0bae774387a724838360405161343a92919061572e565b60405180910390a250505b5b50505050565b5f815f01805490509050919050565b5f63ffffffff80168211156134aa576020826040517f6dfcc6500000000000000000000000000000000000000000000000000000000081526004016134a192919061578e565b60405180910390fd5b819050919050565b5f5f6134bc613908565b9050805f015f8473ffffffffffffffffffffffffffffffffffffffff1673ffffffffffffffffffffffffffffffffffffffff1681526020019081526020015f2054915050919050565b5f6040517f190100000000000000000000000000000000000000000000000000000000000081528360028201528260228201526042812091505092915050565b5f5f5f7f7fffffffffffffffffffffffffffffff5d576e7357a4501ddfe92f46681b20a0845f1c1115613581575f600385925092509250613622565b5f6001888888886040515f81526020016040526040516135a494939291906157b5565b6020604051602081039080840390855afa1580156135c4573d5f5f3e3d5ffd5b5050506020604051035190505f73ffffffffffffffffffffffffffffffffffffffff168173ffffffffffffffffffffffffffffffffffffffff1603613615575f60015f5f1b93509350935050613622565b805f5f5f1b935093509350505b9450945094915050565b5f600381111561363f5761363e6157f8565b5b826003811115613652576136516157f8565b5b031561378a576001600381111561366c5761366b6157f8565b5b82600381111561367f5761367e6157f8565b5b036136b6576040517ff645eedf00000000000000000000000000000000000000000000000000000000815260040160405180910390fd5b600260038111156136ca576136c96157f8565b5b8260038111156136dd576136dc6157f8565b5b0361372157805f1c6040517ffce698f700000000000000000000000000000000000000000000000000000000815260040161371891906147af565b60405180910390fd5b600380811115613734576137336157f8565b5b826003811115613747576137466157f8565b5b0361378957806040517fd78bce0c000000000000000000000000000000000000000000000000000000008152600401613780919061488c565b60405180910390fd5b5b5050565b5f7ff0c57e16840df040f15088dc2f81fe391c3923bec73e23a9662efc9c229c6a005f1b905090565b6137bf613e2d565b6137f5576040517fd7e6bcf800000000000000000000000000000000000000000000000000000000815260040160405180910390fd5b565b6137ff6137b7565b5f6138086119eb565b90508281600301908161381b91906159bc565b508181600401908161382d91906159bc565b50505050565b61383b6137b7565b5f73ffffffffffffffffffffffffffffffffffffffff168173ffffffffffffffffffffffffffffffffffffffff16036138ab575f6040517f1e4fbdf70000000000000000000000000000000000000000000000000000000081526004016138a29190614827565b60405180910390fd5b6138b481612560565b50565b6138bf6137b7565b5f6138c8612642565b9050828160020190816138db91906159bc565b50818160030190816138ed91906159bc565b505f5f1b815f01819055505f5f1b8160010181905550505050565b5f7f5ab42ced628888259c08ac98db1eb0cf702fc1501344311d8b100cd1bfe4bb00905090565b613937614545565b825f018263ffffffff168154811061395257613951615a8b565b5b905f5260205f20016040518060400160405290815f82015f9054906101000a900465ffffffffffff1665ffffffffffff1665ffffffffffff1681526020015f820160069054906101000a900479ffffffffffffffffffffffffffffffffffffffffffffffffffff1679ffffffffffffffffffffffffffffffffffffffffffffffffffff1679ffffffffffffffffffffffffffffffffffffffffffffffffffff1681525050905092915050565b613a09838383613e4b565b5f73ffffffffffffffffffffffffffffffffffffffff168373ffffffffffffffffffffffffffffffffffffffff1603613a9c575f613a45610bf2565b90505f613a5061407a565b905080821115613a995781816040517f1cb15d26000000000000000000000000000000000000000000000000000000008152600401613a9092919061572e565b60405180910390fd5b50505b613aa783838361409d565b505050565b5f5f613ab6612642565b90505f613ac1612669565b90505f81511115613add57808051906020012092505050613b1f565b5f825f015490505f5f1b8114613af857809350505050613b1f565b7fc5d2460186f7233c927e7db2dcc703c0e500b653ca82273b7bfad8045d85a47093505050505b90565b5f5f613b2c612642565b90505f613b37612707565b90505f81511115613b5357808051906020012092505050613b96565b5f826001015490505f5f1b8114613b6f57809350505050613b96565b7fc5d2460186f7233c927e7db2dcc703c0e500b653ca82273b7bfad8045d85a47093505050505b90565b5f8115159050919050565b5f6002828418613bb49190615ab8565b828416613bc191906154c7565b905092915050565b5f819050919050565b5f8173ffffffffffffffffffffffffffffffffffffffff163b03613c2d57806040517f4c9c8ce3000000000000000000000000000000000000000000000000000000008152600401613c249190614827565b60405180910390fd5b80613c597f360894a13ba1a3210667c828492db98dca3e2076cc3735a920a3ca505d382bbc5f1b613bc9565b5f015f6101000a81548173ffffffffffffffffffffffffffffffffffffffff021916908373ffffffffffffffffffffffffffffffffffffffff16021790555050565b60605f5f8473ffffffffffffffffffffffffffffffffffffffff1684604051613cc49190615b22565b5f60405180830381855af49150503d805f8114613cfc576040519150601f19603f3d011682016040523d82523d5f602084013e613d01565b606091505b5091509150613d11858383614165565b9250505092915050565b5f341115613d55576040517fb398979f00000000000000000000000000000000000000000000000000000000815260040160405180910390fd5b565b5f8183613d649190615b38565b905092915050565b5f79ffffffffffffffffffffffffffffffffffffffffffffffffffff8016821115613dd15760d0826040517f6dfcc650000000000000000000000000000000000000000000000000000000008152600401613dc8929190615bbe565b60405180910390fd5b819050919050565b5f5f613e0c613de661112f565b613dfc613df2886127cc565b868863ffffffff16565b876141f29092919063ffffffff16565b91509150935093915050565b5f8183613e259190615be5565b905092915050565b5f613e366128cc565b5f0160089054906101000a900460ff16905090565b5f613e546119eb565b90505f73ffffffffffffffffffffffffffffffffffffffff168473ffffffffffffffffffffffffffffffffffffffff1603613ea85781816002015f828254613e9c91906154c7565b92505081905550613f7a565b5f815f015f8673ffffffffffffffffffffffffffffffffffffffff1673ffffffffffffffffffffffffffffffffffffffff1681526020019081526020015f2054905082811015613f33578481846040517fe450d38c000000000000000000000000000000000000000000000000000000008152600401613f2a93929190615438565b60405180910390fd5b828103825f015f8773ffffffffffffffffffffffffffffffffffffffff1673ffffffffffffffffffffffffffffffffffffffff1681526020019081526020015f2081905550505b5f73ffffffffffffffffffffffffffffffffffffffff168373ffffffffffffffffffffffffffffffffffffffff1603613fc35781816002015f828254039250508190555061400f565b81815f015f8573ffffffffffffffffffffffffffffffffffffffff1673ffffffffffffffffffffffffffffffffffffffff1681526020019081526020015f205f82825401925050819055505b8273ffffffffffffffffffffffffffffffffffffffff168473ffffffffffffffffffffffffffffffffffffffff167fddf252ad1be2c89b69c2b068fc378daa952ba7f163c4a11628f55a4df523b3ef8460405161406c91906147af565b60405180910390a350505050565b5f79ffffffffffffffffffffffffffffffffffffffffffffffffffff8016905090565b5f6140a6611bbc565b90505f73ffffffffffffffffffffffffffffffffffffffff168473ffffffffffffffffffffffffffffffffffffffff16036140f6576140f381600201613e186140ee85613d6c565b613dd9565b50505b5f73ffffffffffffffffffffffffffffffffffffffff168373ffffffffffffffffffffffffffffffffffffffff16036141445761414181600201613d5761413c85613d6c565b613dd9565b50505b61415f61415085610e70565b61415985610e70565b846131cc565b50505050565b60608261417a576141758261420d565b6141ea565b5f82511480156141a057505f8473ffffffffffffffffffffffffffffffffffffffff163b145b156141e257836040517f9996b3150000000000000000000000000000000000000000000000000000000081526004016141d99190614827565b60405180910390fd5b8190506141eb565b5b9392505050565b5f5f614201855f018585614251565b91509150935093915050565b5f8151111561421f5780518082602001fd5b6040517fd6bda27500000000000000000000000000000000000000000000000000000000815260040160405180910390fd5b5f5f5f858054905090505f81111561445d575f61427a876001846142759190615494565b61306f565b90505f815f015f9054906101000a900465ffffffffffff1690505f825f0160069054906101000a900479ffffffffffffffffffffffffffffffffffffffffffffffffffff1690508765ffffffffffff168265ffffffffffff16111561430b576040517f2520601d00000000000000000000000000000000000000000000000000000000815260040160405180910390fd5b8765ffffffffffff168265ffffffffffff16036143755786835f0160066101000a81548179ffffffffffffffffffffffffffffffffffffffffffffffffffff021916908379ffffffffffffffffffffffffffffffffffffffffffffffffffff16021790555061444e565b8860405180604001604052808a65ffffffffffff1681526020018979ffffffffffffffffffffffffffffffffffffffffffffffffffff16815250908060018154018082558091505060019003905f5260205f20015f909190919091505f820151815f015f6101000a81548165ffffffffffff021916908365ffffffffffff1602179055506020820151815f0160066101000a81548179ffffffffffffffffffffffffffffffffffffffffffffffffffff021916908379ffffffffffffffffffffffffffffffffffffffffffffffffffff16021790555050505b8087955095505050505061453d565b8560405180604001604052808765ffffffffffff1681526020018679ffffffffffffffffffffffffffffffffffffffffffffffffffff16815250908060018154018082558091505060019003905f5260205f20015f909190919091505f820151815f015f6101000a81548165ffffffffffff021916908365ffffffffffff1602179055506020820151815f0160066101000a81548179ffffffffffffffffffffffffffffffffffffffffffffffffffff021916908379ffffffffffffffffffffffffffffffffffffffffffffffffffff16021790555050505f8492509250505b935093915050565b60405180604001604052805f65ffffffffffff1681526020015f79ffffffffffffffffffffffffffffffffffffffffffffffffffff1681525090565b5f604051905090565b5f5ffd5b5f5ffd5b5f7fffffffff0000000000000000000000000000000000000000000000000000000082169050919050565b6145c681614592565b81146145d0575f5ffd5b50565b5f813590506145e1816145bd565b92915050565b5f602082840312156145fc576145fb61458a565b5b5f614609848285016145d3565b91505092915050565b5f8115159050919050565b61462681614612565b82525050565b5f60208201905061463f5f83018461461d565b92915050565b5f81519050919050565b5f82825260208201905092915050565b8281835e5f83830152505050565b5f601f19601f8301169050919050565b5f61468782614645565b614691818561464f565b93506146a181856020860161465f565b6146aa8161466d565b840191505092915050565b5f6020820190508181035f8301526146cd818461467d565b905092915050565b5f73ffffffffffffffffffffffffffffffffffffffff82169050919050565b5f6146fe826146d5565b9050919050565b61470e816146f4565b8114614718575f5ffd5b50565b5f8135905061472981614705565b92915050565b5f819050919050565b6147418161472f565b811461474b575f5ffd5b50565b5f8135905061475c81614738565b92915050565b5f5f604083850312156147785761477761458a565b5b5f6147858582860161471b565b92505060206147968582860161474e565b9150509250929050565b6147a98161472f565b82525050565b5f6020820190506147c25f8301846147a0565b92915050565b5f5f5f606084860312156147df576147de61458a565b5b5f6147ec8682870161471b565b93505060206147fd8682870161471b565b925050604061480e8682870161474e565b9150509250925092565b614821816146f4565b82525050565b5f60208201905061483a5f830184614818565b92915050565b5f60ff82169050919050565b61485581614840565b82525050565b5f60208201905061486e5f83018461484c565b92915050565b5f819050919050565b61488681614874565b82525050565b5f60208201905061489f5f83018461487d565b92915050565b5f5ffd5b5f5ffd5b7f4e487b71000000000000000000000000000000000000000000000000000000005f52604160045260245ffd5b6148e38261466d565b810181811067ffffffffffffffff82111715614902576149016148ad565b5b80604052505050565b5f614914614581565b905061492082826148da565b919050565b5f67ffffffffffffffff82111561493f5761493e6148ad565b5b6149488261466d565b9050602081019050919050565b828183375f83830152505050565b5f61497561497084614925565b61490b565b905082815260208101848484011115614991576149906148a9565b5b61499c848285614955565b509392505050565b5f82601f8301126149b8576149b76148a5565b5b81356149c8848260208601614963565b91505092915050565b5f5f5f606084860312156149e8576149e761458a565b5b5f6149f58682870161471b565b9350506020614a068682870161474e565b925050604084013567ffffffffffffffff811115614a2757614a2661458e565b5b614a33868287016149a4565b9150509250925092565b5f60208284031215614a5257614a5161458a565b5b5f614a5f8482850161474e565b91505092915050565b5f5f60408385031215614a7e57614a7d61458a565b5b5f614a8b8582860161471b565b925050602083013567ffffffffffffffff811115614aac57614aab61458e565b5b614ab8858286016149a4565b9150509250929050565b5f60208284031215614ad757614ad661458a565b5b5f614ae48482850161471b565b91505092915050565b5f63ffffffff82169050919050565b614b0581614aed565b82525050565b5f602082019050614b1e5f830184614afc565b92915050565b5f7fff0000000000000000000000000000000000000000000000000000000000000082169050919050565b614b5881614b24565b82525050565b5f81519050919050565b5f82825260208201905092915050565b5f819050602082019050919050565b614b908161472f565b82525050565b5f614ba18383614b87565b60208301905092915050565b5f602082019050919050565b5f614bc382614b5e565b614bcd8185614b68565b9350614bd883614b78565b805f5b83811015614c08578151614bef8882614b96565b9750614bfa83614bad565b925050600181019050614bdb565b5085935050505092915050565b5f60e082019050614c285f83018a614b4f565b8181036020830152614c3a818961467d565b90508181036040830152614c4e818861467d565b9050614c5d60608301876147a0565b614c6a6080830186614818565b614c7760a083018561487d565b81810360c0830152614c898184614bb9565b905098975050505050505050565b5f65ffffffffffff82169050919050565b614cb181614c97565b82525050565b5f602082019050614cca5f830184614ca8565b92915050565b5f5f5f5f60808587031215614ce857614ce761458a565b5b5f614cf58782880161471b565b9450506020614d068782880161471b565b9350506040614d178782880161474e565b925050606085013567ffffffffffffffff811115614d3857614d3761458e565b5b614d44878288016149a4565b91505092959194509250565b614d5981614840565b8114614d63575f5ffd5b50565b5f81359050614d7481614d50565b92915050565b614d8381614874565b8114614d8d575f5ffd5b50565b5f81359050614d9e81614d7a565b92915050565b5f5f5f5f5f5f60c08789031215614dbe57614dbd61458a565b5b5f614dcb89828a0161471b565b9650506020614ddc89828a0161474e565b9550506040614ded89828a0161474e565b9450506060614dfe89828a01614d66565b9350506080614e0f89828a01614d90565b92505060a0614e2089828a01614d90565b9150509295509295509295565b5f5f5f5f5f5f5f60e0888a031215614e4857614e4761458a565b5b5f614e558a828b0161471b565b9750506020614e668a828b0161471b565b9650506040614e778a828b0161474e565b9550506060614e888a828b0161474e565b9450506080614e998a828b01614d66565b93505060a0614eaa8a828b01614d90565b92505060c0614ebb8a828b01614d90565b91505092959891949750929550565b5f5f60408385031215614ee057614edf61458a565b5b5f614eed8582860161471b565b9250506020614efe8582860161471b565b9150509250929050565b614f1181614aed565b8114614f1b575f5ffd5b50565b5f81359050614f2c81614f08565b92915050565b5f5f60408385031215614f4857614f4761458a565b5b5f614f558582860161471b565b9250506020614f6685828601614f1e565b9150509250929050565b614f7981614c97565b82525050565b5f79ffffffffffffffffffffffffffffffffffffffffffffffffffff82169050919050565b614fad81614f7f565b82525050565b604082015f820151614fc75f850182614f70565b506020820151614fda6020850182614fa4565b50505050565b5f604082019050614ff35f830184614fb3565b92915050565b7f4e487b71000000000000000000000000000000000000000000000000000000005f52602260045260245ffd5b5f600282049050600182168061503d57607f821691505b6020821081036150505761504f614ff9565b5b50919050565b5f6040820190506150695f830185614818565b61507660208301846147a0565b9392505050565b7f4549503731323a20556e696e697469616c697a656400000000000000000000005f82015250565b5f6150b160158361464f565b91506150bc8261507d565b602082019050919050565b5f6020820190508181035f8301526150de816150a5565b9050919050565b5f6060820190506150f85f830186614818565b6151056020830185614818565b61511260408301846147a0565b949350505050565b5f60808201905061512d5f83018761487d565b61513a6020830186614818565b61514760408301856147a0565b61515460608301846147a0565b95945050505050565b7f4e487b71000000000000000000000000000000000000000000000000000000005f52601160045260245ffd5b5f8160011c9050919050565b5f5f8291508390505b60018511156151df578086048111156151bb576151ba61515d565b5b60018516156151ca5780820291505b80810290506151d88561518a565b945061519f565b94509492505050565b5f826151f757600190506152b2565b81615204575f90506152b2565b816001811461521a576002811461522457615253565b60019150506152b2565b60ff8411156152365761523561515d565b5b8360020a91508482111561524d5761524c61515d565b5b506152b2565b5060208310610133831016604e8410600b84101617156152885782820a9050838111156152835761528261515d565b5b6152b2565b6152958484846001615196565b925090508184048111156152ac576152ab61515d565b5b81810290505b9392505050565b5f6152c38261472f565b91506152ce83614840565b92506152fb7fffffffffffffffffffffffffffffffffffffffffffffffffffffffffffffffff84846151e8565b905092915050565b5f61530d8261472f565b91506153188361472f565b92508282026153268161472f565b9150828204841483151761533d5761533c61515d565b5b5092915050565b5f819050919050565b5f67ffffffffffffffff82169050919050565b5f819050919050565b5f61538361537e61537984615344565b615360565b61534d565b9050919050565b61539381615369565b82525050565b5f6020820190506153ac5f83018461538a565b92915050565b5f60c0820190506153c55f83018961487d565b6153d26020830188614818565b6153df6040830187614818565b6153ec60608301866147a0565b6153f960808301856147a0565b61540660a08301846147a0565b979650505050505050565b5f6040820190506154245f830185614818565b6154316020830184614818565b9392505050565b5f60608201905061544b5f830186614818565b61545860208301856147a0565b61546560408301846147a0565b949350505050565b5f6040820190506154805f8301856147a0565b61548d6020830184614ca8565b9392505050565b5f61549e8261472f565b91506154a98361472f565b92508282039050818111156154c1576154c061515d565b5b92915050565b5f6154d18261472f565b91506154dc8361472f565b92508282019050808211156154f4576154f361515d565b5b92915050565b5f81519050919050565b5f82825260208201905092915050565b5f61551e826154fa565b6155288185615504565b935061553881856020860161465f565b6155418161466d565b840191505092915050565b5f60808201905061555f5f830187614818565b61556c6020830186614818565b61557960408301856147a0565b818103606083015261558b8184615514565b905095945050505050565b5f815190506155a4816145bd565b92915050565b5f602082840312156155bf576155be61458a565b5b5f6155cc84828501615596565b91505092915050565b5f815190506155e381614d7a565b92915050565b5f602082840312156155fe576155fd61458a565b5b5f61560b848285016155d5565b91505092915050565b5f6060820190506156275f830186614818565b61563460208301856147a0565b81810360408301526156468184615514565b9050949350505050565b5f60a0820190506156635f83018861487d565b615670602083018761487d565b61567d604083018661487d565b61568a60608301856147a0565b6156976080830184614818565b9695505050505050565b5f819050919050565b5f6156c46156bf6156ba846156a1565b615360565b614840565b9050919050565b6156d4816156aa565b82525050565b5f6040820190506156ed5f8301856156cb565b6156fa60208301846147a0565b9392505050565b7f4e487b71000000000000000000000000000000000000000000000000000000005f52601260045260245ffd5b5f6040820190506157415f8301856147a0565b61574e60208301846147a0565b9392505050565b5f819050919050565b5f61577861577361576e84615755565b615360565b614840565b9050919050565b6157888161575e565b82525050565b5f6040820190506157a15f83018561577f565b6157ae60208301846147a0565b9392505050565b5f6080820190506157c85f83018761487d565b6157d5602083018661484c565b6157e2604083018561487d565b6157ef606083018461487d565b95945050505050565b7f4e487b71000000000000000000000000000000000000000000000000000000005f52602160045260245ffd5b5f819050815f5260205f209050919050565b5f6020601f8301049050919050565b5f82821b905092915050565b5f600883026158817fffffffffffffffffffffffffffffffffffffffffffffffffffffffffffffffff82615846565b61588b8683615846565b95508019841693508086168417925050509392505050565b5f6158bd6158b86158b38461472f565b615360565b61472f565b9050919050565b5f819050919050565b6158d6836158a3565b6158ea6158e2826158c4565b848454615852565b825550505050565b5f5f905090565b6159016158f2565b61590c8184846158cd565b505050565b5b8181101561592f576159245f826158f9565b600181019050615912565b5050565b601f8211156159745761594581615825565b61594e84615837565b8101602085101561595d578190505b61597161596985615837565b830182615911565b50505b505050565b5f82821c905092915050565b5f6159945f1984600802615979565b1980831691505092915050565b5f6159ac8383615985565b9150826002028217905092915050565b6159c582614645565b67ffffffffffffffff8111156159de576159dd6148ad565b5b6159e88254615026565b6159f3828285615933565b5f60209050601f831160018114615a24575f8415615a12578287015190505b615a1c85826159a1565b865550615a83565b601f198416615a3286615825565b5f5b82811015615a5957848901518255600182019150602085019450602081019050615a34565b86831015615a765784890151615a72601f891682615985565b8355505b6001600288020188555050505b505050505050565b7f4e487b71000000000000000000000000000000000000000000000000000000005f52603260045260245ffd5b5f615ac28261472f565b9150615acd8361472f565b925082615add57615adc615701565b5b828204905092915050565b5f81905092915050565b5f615afc826154fa565b615b068185615ae8565b9350615b1681856020860161465f565b80840191505092915050565b5f615b2d8284615af2565b915081905092915050565b5f615b4282614f7f565b9150615b4d83614f7f565b9250828203905079ffffffffffffffffffffffffffffffffffffffffffffffffffff811115615b7f57615b7e61515d565b5b92915050565b5f819050919050565b5f615ba8615ba3615b9e84615b85565b615360565b614840565b9050919050565b615bb881615b8e565b82525050565b5f604082019050615bd15f830185615baf565b615bde60208301846147a0565b9392505050565b5f615bef82614f7f565b9150615bfa83614f7f565b9250828201905079ffffffffffffffffffffffffffffffffffffffffffffffffffff811115615c2c57615c2b61515d565b5b9291505056fea2646970667358221220f76a7866461b5a0c683c072a6e5beb674e0e6babeaa72573296e4055fe79e78564736f6c634300081e0033","linkReferences":{}},"methodIdentifiers":{"CLOCK_MODE()":"4bf5d7e9","DOMAIN_SEPARATOR()":"3644e515","MAX_SUPPLY()":"32cb6b0c","TARGET_SUPPLY()":"b8488052","TREASURY()":"2d2c5565","UPGRADE_INTERFACE_VERSION()":"ad3cb1cc","allowance(address,address)":"dd62ed3e","approve(address,uint256)":"095ea7b3","approveAndCall(address,uint256)":"3177029f","approveAndCall(address,uint256,bytes)":"cae9ca51","balanceOf(address)":"70a08231","burn(uint256)":"42966c68","burnFrom(address,uint256)":"79cc6790","checkpoints(address,uint32)":"f1127ed8","clock()":"91ddadf4","decimals()":"313ce567","delegate(address)":"5c19a95c","delegateBySig(address,uint256,uint256,uint8,bytes32,bytes32)":"c3cda520","delegates(address)":"587cde1e","eip712Domain()":"84b0196e","getPastTotalSupply(uint256)":"8e539e8c","getPastVotes(address,uint256)":"3a46b1a8","getVotes(address)":"9ab24eb0","initialize(address)":"c4d66de8","mint(address,uint256)":"40c10f19","name()":"06fdde03","nonces(address)":"7ecebe00","numCheckpoints(address)":"6fcfff45","owner()":"8da5cb5b","permit(address,address,uint256,uint256,uint8,bytes32,bytes32)":"d505accf","proxiableUUID()":"52d1902d","renounceOwnership()":"715018a6","supportsInterface(bytes4)":"01ffc9a7","symbol()":"95d89b41","totalSupply()":"18160ddd","transfer(address,uint256)":"a9059cbb","transferAndCall(address,uint256)":"1296ee62","transferAndCall(address,uint256,bytes)":"4000aea0","transferFrom(address,address,uint256)":"23b872dd","transferFromAndCall(address,address,uint256)":"d8fbe994","transferFromAndCall(address,address,uint256,bytes)":"c1d34b89","transferOwnership(address)":"f2fde38b","upgradeToAndCall(address,bytes)":"4f1ef286"},"id":69}